:100000000C942A000C9447000C9447000C94470071
:100010000C9447000C9447000C9447000C94470044
:100020000C9447000C9447000C9447000C94470034
:100030000C9447000C9447000C9447000C94470024
:100040000C9447000C9447000C9447000C94470014
:100050000C94470011241FBECFE5D4E0DEBFCDBF16
:1000600010E0A0E6B0E0E2E5FAE002C005900D92F3
:10007000A23DB107D9F710E0A2EDB0E001C01D929A
:10008000A43DB107E1F70E9417020C9427050C94D8
:10009000000010BC83E389B91BB888E18AB986E8FF
:1000A00080BD08955D9BFECF8CB908955F9BFECF08
:1000B0008CB10895FC0104C05D9BFECF8CB93196D4
:1000C00080818823C9F7089520B32F70982F907FDF
:1000D000920F92BB939A92B312BA8295807F280FA7
:1000E00022BB939A82B312BA0895929A0E94640036
:1000F00082E78A95F1F7089592B392BB0E9464005B
:1001000082E78A95F1F7089580E991E028EC30E0E4
:10011000F9013197F1F70197D9F780E382BB939A00
:1001200092B312BA98E6292F2A95F1F782BB939AD7
:1001300082B312BA892F8A95F1F780E282BB939A33
:1001400082B312BA9A95F1F788E20E947C008CE0A3
:100150000E947C0081E00E947C0084EF9BE001977C
:10016000F1F786E00E947C000895DC9AD49ADC982E
:1001700080EC93E00197F1F7D498DC9888EC90E05C
:100180000197F1F789B3E8EFF2E03197F1F790E0EA
:1001900084FF91E0892F0895D49A9BB31BBA95E010
:1001A0009A95F1F780FF02C0DC9A02C08BB31BBAAC
:1001B0008AE98A95F1F78AB31ABA8BB31BBA82E03F
:1001C0008A95F1F708951F93CF93DF93182FC0E01E
:1001D000D0E010FF02C081E001C080E00E94CC00AE
:1001E0002196C830D10511F01695F3CFDF91CF914C
:1001F0001F910895D49A8BB31BBA85E08A95F1F7C5
:100200008AB31ABA8BB31BBA8AE18A95F1F789B31C
:1002100092E89A95F1F790E024E0969587952A95D3
:10022000E1F7817008951F93CF93DF9310E0C0E052
:10023000D0E00E94FA00982F812F869590FF03C08E
:10024000182F106802C0182F192B2196C830D1051D
:1002500081F7812FDF91CF911F9108950E94B50002
:1002600080FF0EC08CEC0E94E30084E40E94E30057
:100270000E94FA0080FFFCCF0E94B50080FD04C000
:100280001092D20080E80CC08CEC0E94E3008EEB50
:100290000E94E3000E9413018093D2000E94130188
:1002A0008093D30082ED90E0089528E030E002C012
:1002B000220F331F8A95E2F725BB82E08A95F1F77A
:1002C00083B38F700895FC011082118280E185BB99
:1002D00022E0822F8A95F1F793B380E285BB822FCB
:1002E0008A95F1F783B39295907F8F70982B9083C6
:1002F00080E485BB822F8A95F1F793B380E885BBB4
:100300002A95F1F783B39295907F8F70982B918304
:100310000895CF92DF92EF92FF920F931F937C018B
:100320008B01CB010E946301F801D080C18080E382
:1003300095E70197F1F7C8010E946301F8018081F8
:100340008D21808381818C218183F701908190951B
:1003500021812095F8018081F7018083F801818156
:10036000F7018183F8018081892380838181822341
:1003700081831F910F91FF90EF90DF90CF900895B0
:10038000FC01918190FF03C02EE030E04EC091FF50
:1003900003C020E030E049C092FF03C02FE030E00E
:1003A00044C093FF03C02DE030E03FC094FF03C082
:1003B00027E030E03AC095FF03C028E030E035C0C8
:1003C00096FF03C029E030E030C097FF03C02CE067
:1003D00030E02BC0808180FF03C024E030E025C0E6
:1003E00081FF03C025E030E020C082FF03C026E08B
:1003F00030E01BC083FF03C02BE030E016C084FF59
:1004000003C021E030E011C085FF03C022E030E0EE
:100410000CC086FF03C023E030E007C087FD03C0A7
:1004200020E130E002C02AE030E0C90108954F9297
:100430005F926F927F928F929F92AF92BF92CF9274
:10044000DF92EF92FF920F931F93DF93CF93CDB77D
:10045000DEB7A8970FB6F894DEBF0FBECDBF8FE50D
:1004600094E09EBF8DBF8CEF81BB80EF84BB10BC3E
:1004700083E389B91BB888E18AB986E880BD80E644
:1004800090E00E945A00FE01359601C081935F9B67
:10049000FECF8CB18A30D1F788EE93E028EC30E0C3
:1004A000F9013197F1F70197D9F78D81823209F07F
:1004B0005CC08E818335B9F58F81853709F055C0D1
:1004C0008885833609F051C08985833609F04DC08F
:1004D0008A85853609F049C08B85833709F045C088
:1004E0008C85833709F041C08D858232F1F50E94F9
:1004F000840081E30E9475008EE20E94750083E50E
:100500000E94750085E70E94750083E60E947500D1
:1005100083E60E94750085E60E94750083E70E94CD
:10052000750083E720C0863401F58F818136E9F4B8
:1005300088858936D1F489858C36B9F48A858232EA
:10054000A1F40E94840081E30E9475008EE20E9463
:10055000750086E40E94750081E60E94750089E6B8
:100560000E9475008CE60E94750081E790E00E9471
:100570005A00FE013E9601C081935F9BFECF8CB175
:100580008A30D1F788EE93E028EC30E0F90131971A
:10059000F1F70197D9F78E85823209F05CC08F851B
:1005A0008335B9F58889853709F055C0898983363F
:1005B00009F051C08A89833609F04DC08B89853690
:1005C00009F049C08C89833709F045C08D8983378C
:1005D00009F041C08E898232F1F50E94840082E3E5
:1005E0000E9475008EE20E94750083E50E947500EE
:1005F00085E70E94750083E60E94750083E60E94ED
:10060000750085E60E94750083E70E94750083E708
:1006100020C0863401F588898136E9F489898936D4
:10062000D1F48A898C36B9F48B898232A1F40E9484
:10063000840082E30E9475008EE20E94750086E4C9
:100640000E94750081E60E94750089E60E9475008F
:100650008CE60E94750000E3E1E35E2E70E8472E11
:1006600067E1862E912C8C0E9D1E58ECC52ED12C48
:1006700043E0E42EF12CEC0EFD1E3E010894611CBB
:10068000711C30E2A32EB12CAC0EBD1E0E942E01B7
:10069000FC019081992319F481818038B9F381811B
:1006A00080FF03C092959F7004C0919592959F70B2
:1006B00081818295807F8183982B908390FF02C0F7
:1006C0009F5F908310818AE790E00E945A00112377
:1006D00021F45D9BFECF0CB931C017FD02C0312F54
:1006E00003C01F77342D311B343610F440E002C0B4
:1006F000345641E0832F6AE00E941B05282F832F88
:100700000E941B05442369F4222319F45D9BFECF4C
:1007100012C05D9BFECF2F70205D2CB95D9BFECF7C
:100720000AC05D9BFECF5CB85D9BFECF2F70205D45
:100730002CB95D9BFECF9F70905D9CB984EA90E0E0
:100740000E945A00F40101C081935F9BFECF8CB1DF
:100750008A30D1F788EE93E0F6013197F1F70197EF
:10076000D9F78F89823209F05CC0888D8335B9F55D
:10077000898D853709F055C08A8D833609F051C0BF
:100780008B8D833609F04DC08C8D853609F049C0BC
:100790008D8D833709F045C08E8D833709F041C0B8
:1007A0008F8D8232F1F50E94840083E30E947500F0
:1007B0008EE20E94750083E50E94750085E70E9425
:1007C000750083E60E94750083E60E94750085E649
:1007D0000E94750083E70E94750083E720C086347D
:1007E00001F5898D8136E9F48A8D8936D1F48B8DB6
:1007F0008C36B9F48C8D8232A1F40E94840083E39C
:100800000E9475008EE20E94750086E40E947500C9
:1008100081E60E94750089E60E9475008CE60E94C0
:100820007500C301B7010E948901C7010E94C00180
:10083000069709F073C088EA90E00E945A00F5011B
:1008400001C081935F9BFECF8CB18A30D1F788EED7
:1008500093E0F6013197F1F70197D9F788A1823239
:1008600009F05CC089A18335B9F58AA1853709F003
:1008700055C08BA1833609F051C08CA1833609F095
:100880004DC08DA1853609F049C08EA1833709F08E
:1008900045C08FA1833709F041C088A58232F1F5A8
:1008A0000E94840084E30E9475008EE20E9475001D
:1008B00083E50E94750085E70E94750083E60E942B
:1008C000750083E60E94750085E60E94750083E747
:1008D0000E94750083E720C0863401F58AA1813625
:1008E000E9F48BA18936D1F48CA18C36B9F48DA1B1
:1008F0008232A1F40E94840084E30E9475008EE29B
:100900000E94750086E40E94750081E60E947500D1
:1009100089E60E9475008CE60E947500C7010E945E
:10092000C0018630910509F476C0409709F473C080
:1009300087EB90E00E945A00F50101C081935F9B14
:10094000FECF8CB18A30D1F788EE93E0F601319773
:10095000F1F70197D9F788A1823209F05CC089A12B
:100960008335B9F58AA1853709F055C08BA1833647
:1009700009F051C08CA1833609F04DC08DA1853698
:1009800009F049C08EA1833709F045C08FA1833794
:1009900009F041C088A58232F1F50E94840084E309
:1009A0000E9475008EE20E94750083E50E9475002A
:1009B00085E70E94750083E60E94750083E60E9429
:1009C000750085E60E94750083E70E94750083E745
:1009D00020C0863401F58AA18136E9F48BA18936DD
:1009E000D1F48CA18C36B9F48DA18232A1F40E948D
:1009F000840084E30E9475008EE20E94750086E404
:100A00000E94750081E60E94750089E60E947500CB
:100A10008CE60E94750087EC90E00E945A000E94CC
:100A2000840002C00E9475005F9BFECF8CB18A30AB
:100A300009F42CCEF7CF991B79E004C0991F9617C3
:100A400008F0961B881F7A95C9F780950895F89449
:020A5000FFCFD6
:100A52007465616D6E616D653A2022413136220AFC
:100A620000636F6E6E6563740A007061796C6F610A
:100A7200643A205B7B226E616D65223A20225465C6
:100A82006D7065726174757265222C2276616C7567
:100A920065223A007D5D0A0072656164793A20221E
:100AA20074727565220A0072656164793A20226661
:100AB200616C7365220A007472616E736D69740AE7
:020AC200000032
:00000001FF
