:100000000C942A000C9434000C9436000C943400A8
:100010000C9434000C9434000C9434000C94340090
:100020000C9464000C9434000C9434000C94340050
:100030000C9434000C9434000C9434000C94340070
:100040000C9434000C9434000C9434000C94340060
:100050000C94340011241FBECFE5D4E0DEBFCDBF29
:100060000E946F000C9496000C9400001F920F9257
:100070000FB60F9211242F933F938F939F93EF937B
:10008000FF93B09B10C085E88DBD8EEE8CBD8FEFC9
:1000900088BB88E893E128EC30E0F9013197F1F76B
:1000A0000197D9F704C085E88DBD8EEE8CBD81E047
:1000B00088BBFF91EF919F918F913F912F910F906E
:1000C0000FBE0F901F9018951F920F920FB60F92B0
:1000D000112418BA0F900FBE0F901F9018958FEF34
:1000E00087BB1ABA80E88BBF88E085BF789484E02C
:1000F00089BF85E08EBD65E85EEE41E07FEF28ECCC
:1001000030E0CF9BFECFCF99FECFB09B0BC06DBD33
:100110005CBD78BB88E893E1F9013197F1F701976D
:10012000D9F702C06DBD5CBD48BBEBCFF894FFCFE3
:00000001FF
