:100000000C942A000C9434000C9434000C943400AA
:100010000C9434000C9434000C9434000C94340090
:100020000C9434000C9434000C9434000C94340080
:100030000C9434000C9434000C9434000C94340070
:100040000C9434000C9434000C9434000C94340060
:100050000C94340011241FBECFE5D4E0DEBFCDBF29
:100060000E9481000C94FC000C94000020B32F70BF
:10007000982F907F920F92BB939A93988295807F4E
:10008000280F22BB939A93980895929A0E94360063
:1000900082E78A95F1F7089592980E94360088E6E3
:1000A0008A95F1F7089580E991E028EC30E0F901B4
:1000B0003197F1F70197D9F780E382BB939A939830
:1000C00098E6292F2A95F1F782BB939A9398892F66
:1000D0008A95F1F780E282BB939A93989A95F1F70B
:1000E00088E20E944C008CE00E944C0081E00E945B
:1000F0004C0084EF9BE00197F1F786E00E944C00F2
:100100000895EF92FF920F931F93CF93DF938CEF9D
:1001100081BB17BA30E3E32E20E3F22E00E310E3B5
:10012000C8ECD0E02BC0B79B29C00E94530080E3ED
:100130000E94450080E30E9445008DE40E94450036
:1001400089E40E9445008EE40E9445008AE30E94F3
:10015000450080E30E94450080E30E94450083E55E
:100160000E94450085E40E94450083E40E9445000A
:1001700090E3E92E80E3F82E00E310E3B09BD3CFA9
:100180000E9453008E2D0E9445008F2D0E94450035
:100190008DE40E94450089E40E9445008EE40E949F
:1001A00045008AE30E944500802F0E944500812F70
:1001B0000E94450083E50E94450085E40E944500B9
:1001C00083E40E94450080E197E2FE013197F1F758
:1001D0000197D9F7193371F4053351F489E3F8160F
:1001E00029F485E3E81621F2E394C4CFF394C4CF55
:0C01F0000F5FC3CF1F5FC2CFF894FFCF9A
:00000001FF
