:100000000C942A000C9434000C9434000C943400AA
:100010000C9434000C9434000C9434000C94340090
:100020000C9434000C9434000C9434000C94340080
:100030000C9434000C9434000C9434000C94340070
:100040000C9434000C9434000C9434000C94340060
:100050000C94340011241FBECFE5D4E0DEBFCDBF29
:100060000E94E5000C9444010C94000028E030E06C
:1000700002C0220F331F8A95E2F725BB82E08A95E2
:10008000F1F783B38F700895FC011082118280E133
:1000900085BB22E0822F8A95F1F793B380E285BB7E
:1000A000822F8A95F1F783B39295907F8F70982B6A
:1000B000908380E485BB822F8A95F1F793B380E823
:1000C00085BB2A95F1F783B39295907F8F70982B1B
:1000D00091830895CF92DF92EF92FF920F931F9337
:1000E0007C018B01CB010E944400F801D080C180CB
:1000F00080E395E70197F1F7C8010E944400F801F9
:1001000080818D21808381818C218183F701908181
:10011000909521812095F8018081F7018083F80175
:100120008181F7018183F801808189238083818126
:10013000822381831F910F91FF90EF90DF90CF90EA
:100140000895FC01918190FF02C08AE2089591FF19
:1001500002C080E3089592FF02C083E2089593FFF6
:1001600002C084E4089594FF02C087E3089595FFD8
:1001700002C088E3089596FF02C089E3089597FFBF
:1001800002C083E40895808180FF02C084E3089563
:1001900081FF02C085E3089582FF02C086E30895CF
:1001A00083FF02C082E4089584FF02C081E30895C2
:1001B00085FF02C082E3089586FF02C083E30895AD
:1001C000881F8827881F805C08959F92AF92BF92F6
:1001D000CF92DF92EF92FF920F931F93DF93CF9313
:1001E00000D000D0CDB7DEB78FE594E09EBF8DBFC5
:1001F0008FEF87BB90EF992E8E010D5F1F4F6E0121
:100200000894C11CD11CEE24EA9488ECA82EB12CD1
:1002100094BAC601B8010E946A00C8010E94A100F8
:10022000F82E80E4F816A9F3C601B8010E946A000E
:10023000C8010E94A1008034B9F391E3F91661F47A
:10024000863351F4E8BA80E49CE9F5013197F1F77F
:100250000197D9F718BADCCF20E030E0E8BA84EC97
:1002600099E0F5013197F1F70197D9F718BA84ECC5
:1002700099E0F5013197F1F70197D9F72F5F3F4FDB
:0C0280002830310559F7C4CFF894FFCFA7
:00000001FF
