:100000000C942A000C943C000C943C000C943C0092
:100010000C943C000C943C000C943C000C943C0070
:100020000C943C000C943C000C943C000C943C0060
:100030000C943C000C943C000C943C000C943C0050
:100040000C943C000C943C000C943C000C943C0040
:100050000C943C0011241FBECFE5D4E0DEBFCDBF21
:1000600010E0A0E6B0E001C01D92A236B107E1F7B2
:100070000E942F010C94C7010C940000DC9AD49AC2
:10008000DC9880EC93E00197F1F7D498DC9888EC49
:1000900090E00197F1F789B3E8EFF2E03197F1F7DB
:1000A00090E084FF91E0892F0895D49A9BB31BBA06
:1000B00095E09A95F1F780FF02C0DC9A02C08BB3FD
:1000C0001BBA8AE98A95F1F78AB31ABA8BB31BBABD
:1000D00082E08A95F1F708951F93CF93DF93182F4D
:1000E000C0E0D0E010FF02C081E001C080E00E94CB
:1000F00055002196C830D10511F01695F3CFDF9148
:10010000CF911F910895D49A8BB31BBA85E08A953D
:10011000F1F78AB31ABA8BB31BBA8AE18A95F1F761
:1001200089B392E89A95F1F790E024E09695879547
:100130002A95E1F7817008951F93CF93DF9310E024
:10014000C0E0D0E00E948300982F812F869590FF19
:1001500003C0182F106802C0182F192B2196C83021
:10016000D10581F7812FDF91CF911F9108950E94D2
:100170003E0080FF0EC08CEC0E946C0084E40E9464
:100180006C000E94830080FFFCCF0E943E0080FD37
:1001900004C01092600080E80CC08CEC0E946C00DF
:1001A0008EEB0E946C000E949C00809360000E9475
:1001B0009C008093610080E690E0089520B32F704A
:1001C000982F907F920F92BB939A92B312BA829516
:1001D000807F280F22BB939A82B312BA0895929A15
:1001E0000E94DE0082E78A95F1F7089592B392BBF0
:1001F0000E94DE0082E78A95F1F7089580E991E098
:1002000028EC30E0F9013197F1F70197D9F780E355
:1002100082BB939A92B312BA98E6292F2A95F1F7E6
:1002200082BB939A82B312BA892F8A95F1F780E242
:1002300082BB939A82B312BA9A95F1F788E20E9430
:10024000F6008CE00E94F60081E00E94F60084EF48
:100250009BE00197F1F786E00E94F6000895DF9297
:10026000EF92FF920F931F938FE594E09EBF8DBF97
:100270008CEF81BB50E8D52E1ABA1DC00E94FE003B
:100280008EE40E94EF008FE40E94EF0080E20E9463
:10029000EF0084E40E94EF0085E60E94EF0086E70D
:1002A0000E94EF0089E60E94EF0083E60E94EF00C3
:1002B00085E60E94EF000E94B700FC01908199231F
:1002C00019F481818038D1F28181882331F4892F1A
:1002D000869590FD8F5F808308C0892F81958083EC
:1002E000982F969580FD9F5F90838081882321F4CD
:1002F0000E94FE0080E336C087FD04C0282F4BE239
:10030000E42E05C08F772D2D281B3DE2E32E2436E9
:1003100010F4FF2403C02456FF24F394822F6AE0D4
:100320000E94BB01182F822F0E94BB01092F0E943F
:10033000FE008E2D0E94EF00FF2049F40F70112364
:1003400079F01F70812F805D0E94EF0009C081E36A
:100350000E94EF001F70812F805D0E94EF000F70E0
:10036000802F805D0E94EF0080EB0E94EF0083E40D
:100370000E94EF0081CF991B79E004C0991F961766
:1003800008F0961B881F7A95C9F780950895F89410
:02039000FFCF9D
:00000001FF
