:020000020000FC
:100000008FE58DBF84E08EBF88278ABB8FEF87BBCB
:100010008CEF81BBA1D0903809F014C05DD08EE484
:100020007FD08FE67DD080E27BD084E479D085E6F6
:1000300077D086E775D089E673D083E671D085E600
:100040006FD0DECF803021F447D080E369D0D8CFA5
:10005000903041F48F9340D08BE262D08F9186959F
:10006000891F09C08F9338D08DE25AD08F91819526
:1000700099278695891F843610F4C0E302C0C1E336
:100080008456B0E08A3008F404C0B3958A508A30B0
:10009000E0F700E3B00F800FA82FC03391F4B03326
:1000A00049F08B2F3DD08A2F3BD080EB39D083E4B1
:1000B00037D0A6CF8A2F34D080EB32D083E430D033
:1000C0009FCF8C2F2DD08B2F2BD08A2F29D080EB38
:1000D00027D083E425D094CF88E290E0A7D080E3B6
:1000E00082BB939A939887E290E0AAD080E382BB88
:1000F000939A939887E290E0A3D080E282BB939A90
:10010000939887E290E09CD088E210D08CE00ED0EB
:1001100081E00CD08AEF95E093D086E007D0089577
:10012000929A0AD08BE290E08BD00895929804D0F6
:1001300087E290E085D008958F9390B39F70807F81
:10014000890F82BB939A93988F918295807F890FB4
:1001500082BB939A9398089555D080FF14C08CEC7D
:1001600033D084E431D01DD080FFFDCF4BD080FF51
:100170000AC08CEC29D08EEB27D008D0082F06D0EF
:10018000982F802F089590E880E00895B8E0AA277E
:1001900008D0A69580FD80E8A82BBA95C9F78A2FCC
:1001A0000895D49ADC9882E090E04AD0D498DC9804
:1001B0008AE090E045D08827CC9981E08F9381E355
:1001C00090E03ED08F910895A82FB8E08827A0FD39
:1001D00081E004D0A695BA95C9F708958F93D49A73
:1001E000DC9882E090E02CD08F9180FDDC9A80FF3B
:1001F000DC988AE390E024D0D498DC9881E090E009
:100200001FD00895D49ADC9880EE91E019D0D4984C
:10021000DC9884E690E014D089B38F938CE791E06A
:100220000FD09F91882794FF81E008958F939F932B
:1002300086EE93E005D09F918F910197B9F70895CD
:0E02400001970000000000000000D1F70895B3
:00000001FF
