:020000020000FC
:100000008FE58DBF84E08EBF8CEF81BB80EF84BB1A
:1000100085E0F0D0BCD08031D9F38F70082F829565
:10002000D82F40E30A3010F4040F02C047E3040F56
:1000300085E0E0D0ACD08031D9F38F70182FD10F8C
:1000400040E31A3010F4140F02C047E3140F85E0A8
:10005000D1D09DD08031D9F38F70282F8295582F21
:1000600040E32A3010F4240F02C047E3240F85E058
:10007000C1D08DD08031D9F38F70382F580F40E325
:100080003A3010F4340F02C047E3340FE4D0802F2D
:1000900006D1812F04D1822F02D1832F00D18DE38D
:1000A000FED08EE3FCD0D038A9F4503009F58EE4B0
:1000B000F6D08FE4F4D080E2F2D084E4F0D085E68C
:1000C000EED086E7ECD089E6EAD083E6E8D085E694
:1000D000E6D096CFD03019F0DF3FA9F009C05030FC
:1000E000E9F480E3DCD080EBDAD083E4D8D088CFA9
:1000F00085E4D5D082E5D3D082E5D1D08FE4CFD0CE
:1001000082E5CDD07DCF5195503091F3DD275695C6
:100110005D1F583368F78DE2C2D007C0DD275695C2
:100120005D1F5E3728F78BE2BAD0852F843610F436
:10013000C0E302C0C1E38456B0E08A3008F404C0D2
:10014000B3958A508A30E0F740E3B40F840FA82FAC
:10015000C03391F4B03349F08B2FA1D08A2F9FD0B8
:1001600080EB9DD083E49BD04BCF8A2F98D080EB3F
:1001700096D083E494D044CF8C2F91D08B2F8FD006
:100180008A2F8DD080EB8BD083E489D039CFDC01EE
:100190008EE0A0FD089580E0A1FD08958FE0A2FD0E
:1001A00008958DE0A3FD089587E0A4FD089588E0FB
:1001B000A5FD089589E0A6FD08958CE0A7FD0895AA
:1001C00084E0B0FD089585E0B1FD089586E0B2FDBC
:1001D00008958BE0B3FD089581E0B4FD089582E0B9
:1001E000B5FD089583E0B6FD08958AE0B7FD089552
:1001F00080E10895682F15D08F939F93862F90E00C
:100200006AD00FD07F916F9186239723A0E6B0E04C
:100210007D916C918C939E93709560958623972326
:10022000089581E00ED08295B82F82E00AD0B80FF1
:1002300083E007D08295A82F84E003D0A80FCD01DA
:10024000089598E0990F8A95E9F795BB00000000A2
:1002500083B38F70089588E290E03DD080E382BB45
:10026000939A939887E290E040D080E382BB939A80
:10027000939887E290E039D080E282BB939A93987A
:1002800087E290E032D088E210D08CE00ED081E09E
:100290000CD08AEF95E029D086E007D00895929A95
:1002A0000AD08BE290E021D00895929804D087E2A2
:1002B00090E01BD008958F9390B39F70807F890F3B
:1002C00082BB939A93988F918295807F890F82BB8E
:1002D000939A939808958F939F9386EE93E005D019
:1002E0009F918F910197B9F7089501970000000041
:0802F00000000000D1F70895A1
:00000001FF
