:020000020000FC
:100000008FE58DBF84E08EBF88278ABB8FEF87BBCB
:1000100010D09038A9F3903021F48695891F88BBC1
:10002000EFCF819599278695891F8195806888BB38
:10003000E7CF55D080FF14C08CEC33D084E431D0AE
:100040001DD080FFFDCF4BD080FF0AC08CEC29D0A3
:100050008EEB27D008D0082F06D0982F802F089538
:1000600090E880E00895B8E0AA2708D0A69580FD22
:1000700080E8A82BBA95C9F78A2F0895D49ADC98FE
:1000800082E090E04AD0D498DC988AE090E045D0B5
:100090008827CC9981E08F9381E390E03ED08F91C7
:1000A0000895A82FB8E08827A0FD81E004D0A69588
:1000B000BA95C9F708958F93D49ADC9882E090E0BE
:1000C0002CD08F9180FDDC9A80FFDC988AE390E051
:1000D00024D0D498DC9881E090E01FD00895D49A81
:1000E000DC9880EE91E019D0D498DC9884E690E01A
:1000F00014D089B38F938CE791E00FD09F9188271C
:1001000094FF81E008958F939F9386EE93E005D04E
:100110009F918F910197B9F7089501970000000012
:0801200000000000D1F7089572
:00000001FF
