:100000000C942A000C943F000C943F000C943F0089
:100010000C943F000C943F000C943F000C943F0064
:100020000C943F000C943F000C943F000C943F0054
:100030000C943F000C943F000C943F000C943F0044
:100040000C943F000C943F000C943F000C943F0034
:100050000C943F0011241FBECFE5D4E0DEBFCDBF1E
:1000600011E0A0E6B0E0E0ECF2E202C005900D92F3
:10007000A036B107D9F70E9441000C945E110C9490
:1000800000002F923F924F925F926F927F928F92D9
:100090009F92AF92BF92CF92DF92EF92FF920F9317
:1000A0001F93DF93CF93CDB7DEB727970FB6F894A2
:1000B000DEBF0FBECDBF8FE594E09EBF8DBF80E455
:1000C00087B987E886B910BC83E389B91BB888E192
:1000D0008AB986E880BD369A3699FECF84B025B1BC
:1000E000237030E040E050E060E070E080E090E0BD
:1000F00008E00E948203F92F522E580CE1E05216BC
:1001000008F0E0E0D32E2E2F230F31E02D1508F05C
:1001100030E0D22E232F240F31E0241708F030E0F6
:10012000C22E232F250F31E0251708F030E0B22E24
:10013000232F260F31E0261708F030E0A22E232FC0
:10014000270F31E0271708F030E0922E782E832F0A
:10015000870D91E0871508F090E0782E9F0F292EEB
:10016000252D3D2D4C2D5B2D6A2D792D02E00E9411
:100170008203122FF32E842E452E69837A838B837C
:100180009C8305E00E948203A32FB42F052F662EC7
:10019000372E8D83E22EE11AF1E02E1508F0F0E003
:1001A0003A2F3F19E1E0A31708F0E0E0232F2F1BBF
:1001B000F22F21E03F1708F020E0E22B4B2F4819E7
:1001C00031E0B41708F030E0842F8E1BE82F21E0D7
:1001D000481708F020E0322B502F541941E0051742
:1001E00008F040E0452E431A21E0541508F020E0C5
:1001F000422B662DA9816A1B31E0661608F030E0BB
:10020000162F141B21E0611708F020E0322B732D0C
:10021000BA817B1B41E0371608F040E0072F031B33
:1002200021E0701708F020E0422B8D812B81821B8A
:1002300021E03D81381708F020E0F82EF41A31E073
:100240008F1508F030E0232B692E8C81681A621A12
:100250002E2D250D81E02E1508F080E03F2F3D0D5D
:1002600061E03F1708F060E0882E830E81E083167E
:1002700008F080E0682B4E2F4C0D71E04E1708F00F
:1002800070E0C62EC40E81E0C41608F080E0782B22
:10029000542D5B0DE1E0541508F0E0E0D72ED50EAB
:1002A00081E0D51608F080E0E82B612F6A0DF1E0BF
:1002B000611708F0F0E0EE2EE60E81E0E61608F099
:1002C00080E0F82B702F790DA1E0701708F0A0E006
:1002D0001F2F170FE1E0171708F0E0E0AE2B8F2D6E
:1002E000870D91E08F1508F090E0FA2FF80FE1E00C
:1002F000F81708F0E0E09E2B620C382DA6016E2D59
:10030000712F8F2F960D02E00E9482030AE00E9457
:100310000303722E632E542E452E362E272E8E83E7
:100320009F83A4E6AA2EBB24CC24DD24EE24FF2444
:1003300000E010E00E940104F901DA01162F072FF6
:10034000F82EE92E5D9BFECF8E2F805D8CB95D9BD4
:10035000FECF9CE29CB95D9BFECF9F01AD01612F5A
:10036000702F8F2D9E2D02E00E948203122FF32EFC
:10037000E42ED52EB62EA72E4C010E948203C22E4B
:10038000C10E21E0C11608F020E03F0DE1E03F156D
:1003900008F0E0E0F22EF30E21E0F31608F020E082
:1003A000E22B4E0D31E04E1508F030E0EE2EE40E5B
:1003B00021E0E41608F020E0322B5D0D41E05D15F0
:1003C00008F040E0D32ED50E21E0D51608F020E04D
:1003D000422B6B0D31E06B1508F030E0B42EB60EF9
:1003E00021E0B61608F020E0322B7A0D41E07A15B4
:1003F00008F040E0A32EA70E21E0A71608F020E0A9
:10040000422B880D21E0881508F020E0842E880E0C
:1004100031E0881608F030E0232B192D190F120F48
:100420002C2D3F2D4E2D5D2D6B2D7A2D882D912F4E
:1004300002E00E9482032C0DE1E02C1508F0E0E0C0
:100440003F0DF1E03F1508F0F0E0BE2FB30FE1E003
:10045000B31708F0E0E0FE2B4E0DE1E04E1508F07A
:10046000E0E0F40F31E0F41708F030E0E32B5D0D2D
:1004700041E05D1508F040E0E50F31E0E51708F0D8
:1004800030E0432B6B0D51E06B1508F050E0042F6A
:10049000060F31E0061708F030E0532B7A0D41E0EB
:1004A0007A1508F040E0F52EF70E31E0F71608F067
:1004B00030E0432B880D51E0881508F050E0E42E21
:1004C000E80E31E0E81608F030E0D52ED32A190FF7
:1004D000D10EA72DA21B2A2F31E07A1608F030E0AA
:1004E000862D8B1B41E0681608F040E0B82FB31B47
:1004F0003B2F91E08B1708F090E0492B852D8F1B47
:1005000051E0581608F050E0F82FF41B4F2F91E0FF
:100510008F1708F090E0592B842D8E1B61E0481650
:1005200008F060E0982F951B592F91E0851708F08F
:1005300090E0692B832D801B71E0381608F070E085
:10054000A82FA61B6A2F91E08A1708F090E0792B5C
:10055000922D9F1981E0291608F080E0B92FB71B72
:100560007B2FE1E09B1708F0E0E08E2B9E819E1927
:10057000F1E0EE81E91708F0F0E0A92FA81B8A2F1F
:10058000E1E09A1708F0E0E0FE2B9F819D199F1B88
:10059000FAE0AF2EBB24CC24DD24EE24FF2400E0BF
:1005A00010E00E940104205D2CB95D9BFECF272D39
:1005B000362D452D542D632D722D8E819F81EAE0BD
:1005C000AE2EBB24CC24DD24EE24FF2400E010E07A
:1005D0000E94760A205D2CB95D9BFECF8AE08CB923
:1005E0007ACD10BC83E389B91BB888E18AB986E863
:1005F00080BD08955D9BFECF8CB9089580E487B9D6
:1006000087E886B90895EF92FF920F93DF93CF9317
:10061000CDB7DEB760970FB6F894DEBF0FBECDBF83
:10062000A82F002309F461C07E010894E11CF11C8D
:1006300088E0F70111928A95E9F729833A834B8381
:100640005C836D837E83AF83988780E2801BE82F75
:10065000FF27E7FDF0954D815E816F817885181643
:1006600084F01D861E861F86188A882799278E1B70
:100670009F0B04C076956795579547958A95D2F755
:1006800028C0202F332727FD3095DB01CA01022E19
:1006900004C0B695A795979587950A94D2F78D874C
:1006A0009E87AF87B88B04C0440F551F661F771F06
:1006B000EA95D2F789819A81AB81BC8104C0B69555
:1006C000A795979587952A95D2F7482B592B6A2B92
:1006D0007B2B49875A876B877C8729853A854B8591
:1006E0005C856D857E85AF8598898A2F60960FB66B
:1006F000F894DEBF0FBECDBFCF91DF910F91FF9079
:10070000EF900895EF92FF920F93DF93CF93CDB7C1
:10071000DEB760970FB6F894DEBF0FBECDBFA82F2F
:10072000002309F461C07E010894E11CF11C88E0FB
:10073000F70111928A95E9F729833A834B835C8309
:100740006D837E83AF83988780E2801BE82FFF272D
:10075000E7FDF09549815A816B817C81181684F000
:1007600019861A861B861C86882799278E1B9F0B45
:1007700004C0440F551F661F771F8A95D2F728C003
:10078000202F332727FD3095DB01CA01022E04C03C
:10079000880F991FAA1FBB1F0A94D2F789879A87CF
:1007A000AB87BC8704C07695679557954795EA95C2
:1007B000D2F78D819E81AF81B88504C0880F991FC3
:1007C000AA1FBB1F2A95D2F7482B592B6A2B7B2BCC
:1007D0004D875E876F87788B29853A854B855C8549
:1007E0006D857E85AF8598898A2F60960FB6F894BF
:1007F000DEBF0FBECDBFCF91DF910F91FF90EF9085
:100800000895AEE5B0E0E7E0F4E00C942711A8E02D
:100810004E010894811C911CF4016A2E11926A9475
:10082000E9F729833A834B835C836D837E838F83CF
:100830009887CE010996FC011192AA95E9F7A9863D
:10084000BA86CB86DC86ED86FE860F87188B2984D8
:100850003A844B845C84ED84FE840F85188969801A
:100860007A808B809C806DA67EA68FA698AA6D80CC
:100870007E808F809884E114F1040105110509F050
:10088000B3C3621473048404950408F03DC100E00E
:10089000201600E0300601E0400600E0500688F433
:1008A0001FEF211631044104510439F030F048E0C3
:1008B000E42EF12C012D112D18C0EE24FF24870108
:1008C00014C020E0221620E0320620E0420621E09B
:1008D000520630F038E1E32EF12C012D112D05C028
:1008E00020E1E22EF12C012D112DD201C1010E2C9F
:1008F00004C0B695A795979587950A94D2F7805A24
:100900009F4FDC012C9180E290E0A0E0B0E08E19D6
:100910009F09A00BB10B7C018D01E21AF1080109BE
:100920001109E114F10401051105A1F10E2C04C017
:10093000220C331C441C551C0A94D2F7A4019301C9
:100940000E2C04C0220F331F441F551F0A94D2F7E8
:1009500080E290E08E199F096DA47EA48FA498A8D0
:1009600004C096948794779467948A95D2F7622A04
:10097000732A842A952AADA4BEA4CFA4D8A804C003
:10098000AA0CBB1CCC1CDD1CEA94D2F7ADA6BEA6FB
:10099000CFA6D8AA6201EE24FF24CDAADEAAEFAA30
:1009A000F8AE920181012070307009AF1AAF2BAF01
:1009B0003CAFC401B301A70196010E9405117B0160
:1009C0008C01C401B3012DA93EA94FA958AD0E94C5
:1009D0000511C901DA013C014D01C401B30129AD82
:1009E0003AAD4BAD5CAD0E94E6109B01AC018701B6
:1009F000FF24EE24ADA4BEA4CFA4D8A8C601AA2784
:100A0000BB2757016801A82AB92ACA2ADB2AA216DD
:100A1000B306C406D506E0F408946108710881089D
:100A20009108A20CB31CC41CD51CA214B304C404AA
:100A3000D50470F0A216B306C406D50648F408948F
:100A40006108710881089108A20CB31CC41CD51C54
:100A5000A21AB30AC40AD50AC601B5012DA93EA936
:100A60004FA958AD0E9405117B018C01C601B5014B
:100A70002DA93EA94FA958AD0E940511C901DA015F
:100A80005C016D01C601B50129AD3AAD4BAD5CAD60
:100A90000E94E6109B01AC018701FF24EE248DA586
:100AA0009EA5AFA5B8A9A070B070E82AF92A0A2BB4
:100AB0001B2BE216F30604071507C0F40894A108DF
:100AC000B108C108D108E20CF31C041D151DE21485
:100AD000F3040405150550F0E216F30604071507A4
:100AE00028F40894A108B108C108D108D3019927B6
:100AF000882786017501E82AF92A0A2B1B2BE9AA07
:100B0000FAAA0BAB1CABCFC421143104410451042D
:100B100071F461E070E080E090E020E030E040E0DF
:100B200050E00E940511C901DA011C012D0100E00D
:100B3000201600E0300601E0400600E0500688F490
:100B40001FEF211631044104510431F028F048E030
:100B500050E060E070E017C040E050E060E070E01E
:100B600012C020E0221620E0320620E0420621E0FA
:100B7000520628F048E150E060E070E004C040E137
:100B800050E060E070E0D201C101042E04C0B695CF
:100B9000A795979587950A94D2F7805A9F4FDC01C5
:100BA0002C91E0E2EE2EF12C012D112DD801C70180
:100BB000841B950BA60BB70B821B9109A109B109E8
:100BC0000097A105B10561F464015301A218B308AF
:100BD000C408D50831E0632E712C812C912C1EC1E4
:100BE0006F968FAF6F97082E04C0220C331C441CE5
:100BF000551C0A94D2F7EE2DE81B640153010E2E0A
:100C000004C0D694C794B794A7940A94D2F7A401C9
:100C100093016F960FAC6F9704C0220F331F441FD0
:100C2000551F0A94D2F76DA47EA48FA498A80E2E07
:100C300004C096948794779467940A94D2F78401B9
:100C40007301E22AF32A042B152BE9A6FAA60BA7B7
:100C50001CA73201882499249201810120703070F0
:100C600021960CAF1DAF2EAF3FAF2197C601B50146
:100C7000A40193010E9405117B018C01C601B501FD
:100C8000A40193010E940511C901DA0125968CAFD8
:100C90009DAFAEAFBFAF2597BC01CD0121962CAD66
:100CA0003DAD4EAD5FAD21970E94E6109B01AC01BA
:100CB0008701FF24EE24A9A4BAA4CBA4DCA4C60116
:100CC000AA27BB275C016D01AE28BF28C02AD12A04
:100CD000A216B306C406D50660F525966CAD7DADAB
:100CE0008EAD9FAD25976150704080409040259615
:100CF0006CAF7DAF8EAF9FAF2597A20CB31CC41C09
:100D0000D51CA214B304C404D50498F0A216B306EB
:100D1000C406D50670F4615070408040904025961E
:100D20006CAF7DAF8EAF9FAF2597A20CB31CC41CD8
:100D3000D51CA21AB30AC40AD50AC601B501A4017A
:100D400093010E9405117B018C01C601B501A4012C
:100D500093010E940511C901DA013C014D01C40152
:100D6000B30121962CAD3DAD4EAD5FAD21970E94F4
:100D7000E6109B01AC018701FF24EE2489A59AA50A
:100D8000ABA5BCA5A070B07057016801A82AB92A0C
:100D9000CA2ADB2AA216B306C406D506E0F40894D4
:100DA0006108710881089108A20CB31CC41CD51CF1
:100DB000A214B304C404D50470F0A216B306C4068A
:100DC000D50648F408946108710881089108A20CBE
:100DD000B31CC41CD51C8DA59EA5AFA5B8A96F9644
:100DE0000FAC6F9704C0880F991FAA1FBB1F0A94EE
:100DF000D2F78DA79EA7AFA7B8ABA21AB30AC40AB1
:100E0000D50A2596ECACFDAC0EAD1FAD2597D701EC
:100E100099278827682A792A8A2A9B2A82012227E9
:100E2000332729960CAF1DAF2EAF3FAF2997A201F4
:100E30009101407050702D962CAF3DAF4EAF5FAF1B
:100E40002D97C601B50129962CAD3DAD4EAD5FADD8
:100E500029970E9405117B018C01C601B5012996D5
:100E60002CAD3DAD4EAD5FAD29970E940511C90176
:100E7000DA0161968CAF9DAFAEAFBFAF6197BC0199
:100E8000CD012D962CAD3DAD4EAD5FAD2D970E94A1
:100E9000E6109B01AC018701FF24EE24ADA4BEA4A3
:100EA000CFA4D8A8C601AA27BB2757016801A82A42
:100EB000B92ACA2ADB2AA216B306C406D50660F5EB
:100EC00061966CAD7DAD8EAD9FAD61976150704008
:100ED0008040904061966CAF7DAF8EAF9FAF6197C1
:100EE000A20CB31CC41CD51CA214B304C404D504A6
:100EF00098F0A216B306C406D50670F4615070408F
:100F00008040904061966CAF7DAF8EAF9FAF619790
:100F1000A20CB31CC41CD51CA21AB30AC40AD50A5D
:100F2000C601B50129962CAD3DAD4EAD5FAD2997FB
:100F30000E9405117B018C01C601B50129962CADDB
:100F40003DAD4EAD5FAD29970E940511C901DA0193
:100F50005C016D01C601B5012D962CAD3DAD4EADC8
:100F60005FAD2D970E94E6109B01AC018701FF2425
:100F7000EE248DA59EA5AFA5B8A9A070B070E82AF3
:100F8000F92A0A2B1B2BE216F30604071507C0F4F7
:100F90000894A108B108C108D108E20CF31C041D93
:100FA000151DE214F3040405150550F0E216F306CE
:100FB0000407150728F40894A108B108C108D1084E
:100FC0006196ECACFDAC0EAD1FAD6197D7019927D2
:100FD000882796018501082B192B2A2B3B2B09AB5F
:100FE0001AAB2BAB3CAB62C26E147F048006910639
:100FF00008F451C220E0E21620E0F20621E00207E8
:1010000020E0120788F43FEFE316F1040105110513
:1010100031F028F048E050E060E070E017C040E0B8
:1010200050E060E070E012C040E0E41640E0F406FA
:1010300040E0040741E0140728F048E150E060E098
:1010400070E004C040E150E060E070E0D801C7010A
:10105000042E04C0B695A795979587950A94D2F764
:10106000805A9F4FDC012C9130E2A32EB12CC12C71
:10107000D12CD601C501841B950BA60BB70B821B87
:101080009109A109B1090097A105B10589F4E614F8
:10109000F7040805190508F4F2C16DA47EA48FA415
:1010A00098A8621473048404950408F0E8C1F3C19D
:1010B0006E968FAF6E97082E04C0EE0CFF1C001FBB
:1010C000111F0A94D2F76A2D681BD201C101062EA6
:1010D00004C0B695A795979587950A94D2F75C01B9
:1010E0006D01AE28BF28C02AD12AADA2BEA2CFA2D0
:1010F000D8A6720161016E960FAC6E9704C0CC0C3D
:10110000DD1CEE1CFF1C0A94D2F7C9A2DAA2EBA2E6
:10111000FCA264015301062E04C0D694C794B79470
:10112000A7940A94D2F7D401C3016E960FAC6E97C0
:1011300004C0880F991FAA1FBB1F0A94D2F7EDA401
:10114000FEA40FA518A904C016950795F794E79477
:101150006A95D2F737014801682A792A8A2A9B2A98
:101160006D8E7E8E8F8E98A2EDA0FEA00FA118A589
:101170003801882499249801870120703070659681
:101180000CAF1DAF2EAF3FAF6597C601B501A401EF
:1011900093010E9405117B018C01C601B501A401D8
:1011A00093010E940511C901DA011C012D01C20140
:1011B000B10165962CAD3DAD4EAD5FAD65970E941A
:1011C000E6109B01AC018701FF24EE24AD8CBE8CA0
:1011D000CF8CD8A0C601AA27BB2757016801A82A2F
:1011E000B92ACA2ADB2AA216B306C406D50600F518
:1011F00008942108310841085108EDA0FEA00FA174
:1012000018A5AE0CBF1CC01ED11EAE14BF04C00674
:10121000D10670F0A216B306C406D50648F40894A9
:101220002108310841085108AE0CBF1CC01ED11E58
:10123000A21AB30AC40AD50AC601B501A4019301D2
:101240000E9405117B018C01C601B501A401930127
:101250000E940511C901DA013C014D01C401B3012D
:1012600065962CAD3DAD4EAD5FAD65970E94E61025
:101270009B01AC018701FF24EE248D8D9E8DAF8DE7
:10128000B8A1A070B07057016801A82AB92ACA2A6B
:10129000DB2AA216B306C406D50600F50894610839
:1012A0007108810891086DA17EA18FA198A5A60E55
:1012B000B71EC81ED91EA616B706C806D90670F0F6
:1012C000A216B306C406D50648F40894610871084E
:1012D00081089108A60EB71EC81ED91ED601C501E9
:1012E000821B930BA40BB50B898F9A8FAB8FBC8F8E
:1012F000D1019927882764015301A82AB92ACA2A4B
:10130000DB2AA9AABAAACBAADCAA860175012FEF0B
:101310003FEF40E050E0E222F32204231523A60130
:10132000662777276D964CAF5DAF6EAF7FAF6D9739
:10133000A9A0BAA0CBA0DCA06FEF7FEF80E090E087
:10134000A622B722C822D92289A19AA1ABA1BCA109
:101350001D0144245524C801B701A60195010E942E
:10136000E61069966CAF7DAF8EAF9FAF6997C801ED
:10137000B701A20191010E94E6103B014C016D965C
:101380006CAD7DAD8EAD9FAD6D97A60195010E94B0
:10139000E6107B018C016D966CAD7DAD8EAD9FAD81
:1013A0006D97A20191010E94E6105B016C01A801FA
:1013B0009701260D371D481D591D69966CAC7DACF3
:1013C0008EAC9FAC6997C401AA27BB27280F391F91
:1013D0004A1F5B1F2E153F054007510748F4E12CBB
:1013E000F12C61E0062F112DAE0CBF1CC01ED11ECA
:1013F000CA01AA27BB27BC01CD016A0D7B1D8C1D2C
:101400009D1D698C7A8C8B8C9C8C66167706880661
:10141000990640F1661577058805990509F043C0DE
:10142000D9019927882769962CAD3DAD4EAD5FADAA
:10143000699740705070820F931FA41FB51F2DA590
:101440003EA54FA558A96E960FAC6E9704C0220F0B
:10145000331F441F551F0A94D2F7281739074A072C
:101460005B0708F509A91AA92BA93CA9015010404E
:101470002040304009AB1AAB2BAB3CAB14C0662408
:101480007724430121E030E040E050E029AB3AAB63
:101490004BAB5CAB0BC066247724430119AA1AAA94
:1014A0001BAA1CAA03C0662477244301FE0171967F
:1014B00088E0DF011D928A95E9F7A9A8BAA8CBA810
:1014C000DCA8A98ABA8ACB8ADC8A6D8A7E8A8F8A4E
:1014D000988E29A93A894B895C89662D7E898F89E6
:1014E000988DC25ADF4FE2E10C944311ABE5B0E0B6
:1014F000ECE7FAE00C942711A8E04E010894811C57
:10150000911CF4016A2E11926A94E9F729833A83B7
:101510004B835C836D837E838F839887CE0109968E
:10152000FC011192AA95E9F7A986BA86CB86DC86DA
:10153000ED86FE860F87188B29843A844B845C8461
:10154000AD84BE84CF84D88829813A814B815C8167
:1015500069962FAF69976A963FAF6A976B964FAFC0
:101560006B976C965FAF6C976C966CAC7DAC8EACE9
:101570009FAC6C9769AA7AAA8BAA9CAA6D817E817E
:101580008F8198853B014C016DAA7EAA8FAA98AEE7
:10159000A114B104C104D10409F004C3621473049A
:1015A0008404950408F000C100E0201600E0300635
:1015B00001E0400600E0500688F41FEF21163104D8
:1015C0004104510439F030F088E0E82EF12C012D6F
:1015D000112D18C0EE24FF24870114C040E024160A
:1015E00040E0340640E0440641E0540630F0B8E103
:1015F000EB2EF12C012D112D05C0A0E1EA2EF12CCE
:10160000012D112DD201C1010E2C04C0B695A79554
:10161000979587950A94D2F7805A9F4FDC012C91B9
:1016200080E290E0A0E0B0E08E199F09A00BB10B22
:101630005C016D01A21AB108C108D108A9AEBAAE09
:10164000CBAEDCAEA114B104C104D10409F43FC097
:1016500069AD062E04C0220C331C441C551C0A9490
:10166000D2F7A4019301062E04C0220F331F441F9A
:10167000551F0A94D2F780E290E08A199B096C9674
:10168000CCACDDACEEACFFAC6C9704C0F694E79448
:10169000D794C7948A95D2F787017601E22AF32A74
:1016A000042B152BEDAAFEAA0FAB18AF6C968CADD0
:1016B0009DADAEADBFAD6C9704C0880F991FAA1F3A
:1016C000BB1F6A95D2F789AB9AABABABBCAB32010F
:1016D00088249924B201A1016070707021964CAFEA
:1016E0005DAF6EAF7FAF21976DA97EA98FA998AD31
:1016F000A40193010E9405117B018C016DA97EA9B3
:101700008FA998ADA40193010E940511CA01B901E6
:1017100021962CAD3DAD4EAD5FAD21970E94E610F8
:101720009B01AC018701FF24EE24A9A8BAA8CBA88D
:10173000DCA8C601AA27BB2757016801A82AB92A35
:10174000CA2ADB2AA216B306C406D50690F4A20C58
:10175000B31CC41CD51CA214B304C404D50448F0A3
:10176000A216B306C406D50620F4A20CB31CC41CF2
:10177000D51CA21AB30AC40AD50AC601B501A40130
:1017800093010E9405117B018C01C601B501A401E2
:1017900093010E940511CA01B90121962CAD3DADFE
:1017A0004EAD5FAD2197BAC12114310441045104FB
:1017B00071F461E070E080E090E020E030E040E033
:1017C00050E00E940511C901DA011C012D0100E061
:1017D000201600E0300601E0400600E0500688F4E4
:1017E0001FEF211631044104510439F030F068E054
:1017F000E62EF12C012D112D18C0EE24FF248701B7
:1018000014C040E0241640E0340640E0440641E0C5
:10181000540630F058E1E52EF12C012D112D05C0B4
:1018200040E1E42EF12C012D112DD201C1010E2C2D
:1018300004C0B695A795979587950A94D2F7805AD4
:101840009F4FDC012C9130E2A32EB12CC12CD12C66
:10185000D601C5018E199F09A00BB10B7C018D012A
:10186000E21AF10801091109E9AEFAAE0BAF1CAF9B
:10187000E114F1040105110539F464015301A218C2
:10188000B308C408D508E2C0F9AC6896FFAE689703
:101890000F2C04C0220C331C441C551C0A94D2F794
:1018A0008A2D8F1964015301082E04C0D694C79461
:1018B000B794A7940A94D2F7A401930104C0220F0D
:1018C000331F441F551FFA94D2F76C966CAC7DAC55
:1018D0008EAC9FAC6C9704C0969487947794679471
:1018E0008A95D2F784017301E22AF32A042B152B7F
:1018F000EDA6FEA60FA718AB320188249924B201E9
:10190000A1016070707025964CAF5DAF6EAF7FAF78
:101910002597C601B501A40193010E9405117B0121
:101920008C01C601B501A40193010E940511CA01F1
:10193000B90125962CAD3DAD4EAD5FAD25970E940A
:10194000E6109B01AC018701FF24EE24ADA4BEA4E8
:10195000CFA4D8A8C601AA27BB275C016D01AE2879
:10196000BF28C02AD12AA216B306C406D50690F411
:10197000A20CB31CC41CD51CA214B304C404D5040B
:1019800048F0A216B306C406D50620F4A20CB31C78
:10199000C41CD51CA21AB30AC40AD50AC601B501D3
:1019A000A40193010E9405117B018C01C601B501C0
:1019B000A40193010E940511CA01B90125962CAD1D
:1019C0003DAD4EAD5FAD25970E94E6109B01AC0189
:1019D0008701FF24EE248DA59EA5AFA5B8A9A07010
:1019E000B07057016801A82AB92ACA2ADB2AA216B0
:1019F000B306C406D50690F4A20CB31CC41CD51CB7
:101A0000A214B304C404D50448F0A216B306C40655
:101A1000D50620F4A20CB31CC41CD51C6C96ECACEF
:101A2000FDAC0EAD1FAD6C9768960FAC689704C007
:101A3000EE0CFF1C001F111F0A94D2F7E9AAFAAAA4
:101A40000BAB1CABA21AB30AC40AD50A3201882414
:101A50009924B201A1016070707029964CAF5DAFFE
:101A60006EAF7FAF2997C601B501A40193010E9413
:101A700005117B018C01C601B501A40193010E94EF
:101A80000511CA01B90129962CAD3DAD4EAD5FAD32
:101A900029970E94E6109B01AC018701FF24EE24E8
:101AA000A9A8BAA8CBA8DCA8C601AA27BB275701BA
:101AB0006801A82AB92ACA2ADB2AA216B306C406D4
:101AC000D50690F4A20CB31CC41CD51CA214B304FC
:101AD000C404D50448F0A216B306C406D50620F403
:101AE000A20CB31CC41CD51CA21AB30AC40AD50A82
:101AF000C601B501A40193010E9405117B018C016F
:101B0000C601B501A40193010E940511CA01B901E2
:101B100029962CAD3DAD4EAD5FAD29970E94E610E4
:101B20009B01AC018701FF24EE2489A99AA9ABA9E6
:101B3000BCA9A070B070E82AF92A0A2B1B2BE21668
:101B4000F3060407150790F4E20CF31C041D151DA1
:101B5000E214F3040405150548F0E216F306040741
:101B6000150720F4E20CF31C041D151DE21AF30AFC
:101B7000040B150BD801C70109AC04C0B695A79595
:101B8000979587950A94D2F7898B9A8BAB8BBC8BF0
:101B90001D8A1E8A1F8A188E282F3A894B895C89D4
:101BA0006D890CC36A147B048C049D0408F409C37A
:101BB00000E0A01600E0B00601E0C00600E0D0069C
:101BC00088F41FEFA116B104C104D10439F030F03C
:101BD00028E0E22EF12C012D112D18C0EE24FF2457
:101BE000870114C040E0A41640E0B40640E0C406FB
:101BF00041E0D40630F098E1E92EF12C012D112DB1
:101C000005C080E1E82EF12C012D112DD601C50172
:101C10000E2C04C0B695A795979587950A94D2F790
:101C2000805A9F4FDC012C9180E290E0A0E0B0E070
:101C30008E199F09A00BB10B821B9109A109B10953
:101C40000097A105B10509F04FC0A614B704C80458
:101C5000D90458F06C96ECACFDAC0EAD1FAD6C9792
:101C6000E214F3040405150568F16C96ECACFDACC8
:101C70000EAD1FAD6C97E218F30804091509A40115
:101C800093012A193B094C095D09AA24BB2465016B
:101C90006C966CAD7DAD8EAD9FAD6C976E157F056E
:101CA0008007910728F4B1E0AB2EB12CC12CD12CC8
:101CB000DA01C9018A199B09AC09BD098DAB9EAB3C
:101CC000AFABB8AFE98AFA8A0B8B1C8B6DA87EA8E4
:101CD0008FA898AC6D8A7E8A8F8A988E2E2D3A892D
:101CE0004B895C896DA96AC267968FAF6797A60119
:101CF0009501082E04C0220F331F441F551F0A945C
:101D0000D2F7A0E2AA2EA81A6696AFAE6697D201C5
:101D1000C10104C0B695A79597958795AA94D2F767
:101D20006C017D01C22AD32AE42AF52AC9A6DAA6C3
:101D3000EBA6FCA68201710167960FAC679704C001
:101D4000EE0CFF1C001F111F0A94D2F7EDA2FEA299
:101D50000FA318A76401530166960FAC669704C0E1
:101D6000D694C794B794A7940A94D2F7A401930188
:101D700067960FAC679704C0220F331F441F551F8F
:101D80000A94D2F76C968CAD9DADAEADBFAD6C979D
:101D900066960FAC669704C0B695A79597958795FC
:101DA0000A94D2F73C014D01622A732A842A952AAB
:101DB00069A27AA28BA29CA26C96ECACFDAC0EAD93
:101DC0001FAD6C9767960FAC679704C0EE0CFF1CB5
:101DD000001F111F0A94D2F7ED8EFE8E0F8F18A3ED
:101DE00049A55AA56BA57CA53B0188249924607060
:101DF00070702D964CAF5DAF6EAF7FAF2D97C60163
:101E0000B501A40193010E9405117B018C01C6015B
:101E1000B501A40193010E940511C901DA011C0159
:101E20002D01C201B1012D962CAD3DAD4EAD5FAD82
:101E30002D970E94E6109B01AC018701FF24EE2440
:101E4000A9A0BAA0CBA0DCA0C601AA27BB27570136
:101E50006801A82AB92ACA2ADB2AA216B306C40630
:101E6000D50600F508942108310841085108E9A475
:101E7000FAA40BA51CA5AE0CBF1CC01ED11EAE142F
:101E8000BF04C006D10670F0A216B306C406D5067C
:101E900048F408942108310841085108AE0CBF1CD1
:101EA000C01ED11EA21AB30AC40AD50AC601B501C2
:101EB000A40193010E9405117B018C01C601B501AB
:101EC000A40193010E940511C901DA013C014D01F1
:101ED000C401B3012D962CAD3DAD4EAD5FAD2D9738
:101EE0000E94E6109B01AC018701FF24EE2489A12A
:101EF0009AA1ABA1BCA1A070B07057016801A82A3B
:101F0000B92ACA2ADB2AA216B306C406D50600F5EA
:101F10000894610871088108910869A57AA58BA5C4
:101F20009CA5A60EB71EC81ED91EA616B706C806C3
:101F3000D90670F0A216B306C406D50648F4089474
:101F40006108710881089108A60EB71EC81ED91E27
:101F5000D601C501821B930BA40BB50B898F9A8FF9
:101F6000AB8FBC8FD1019927882784017301E82AA0
:101F7000F92A0A2B1B2B4FEFA42E4FEFB42EC12CA6
:101F8000D12CAE20BF20C022D122780100271127FA
:101F90006DA07EA08FA098A44FEF5FEF60E070E08F
:101FA00064227522862297228DA19EA1AFA1B8A599
:101FB000BD018827992765966CAF7DAF8EAF9FAF27
:101FC0006597C601B501A40193010E94E6106196D0
:101FD0006CAF7DAF8EAF9FAF6197C601B5016596BF
:101FE0002CAD3DAD4EAD5FAD65970E94E6101B0177
:101FF0002C01C801B701A40193010E94E6105B0106
:102000006C01C801B70165962CAD3DAD4EAD5FAD1D
:1020100065970E94E6107B018C01A6019501220DB7
:10202000331D441D551D61966CAC7DAC8EAC9FACD0
:102030006197C401AA27BB27280F391F4A1F5B1FBE
:102040002A153B054C055D0548F4812C912CE1E0F7
:10205000AE2EB12CE80CF91C0A1D1B1DCA01AA27C3
:10206000BB2757016801A80EB91ECA1EDB1EA901B5
:102070003327222761968CAD9DADAEADBFAD619784
:10208000A070B070280F391F4A1F5B1FE98CFA8CB3
:102090000B8D1C8DEA14FB040C051D0570F0AE14AD
:1020A000BF04C006D10669F56D8D7E8D8F8D98A118
:1020B000621773078407950720F5DA01C9016DA03F
:1020C0007EA08FA098A486199709A809B909E9A448
:1020D000FAA40BA51CA5AE18BF08C00AD10AEE24AD
:1020E000FF248701281739074A075B0728F421E0F6
:1020F000E22EF12C012D112DAE18BF08C00AD10A15
:1021000002C0DA01C9016D8C7E8C8F8C98A0681A90
:10211000790A8A0A9B0A498D5A8D6B8D7C8D4A19E2
:102120005B096C097D095A016B01222433242101CA
:102130006D8D7E8D8F8D98A1661577058805990523
:1021400028F481E0282E312C412C512C8601750178
:10215000E218F30804091509A801970166960FAC67
:10216000669704C0220F331F441F551F0A94D2F7ED
:10217000D401C30167960FAC679704C0B695A795C5
:10218000979587950A94D2F7282B392B4A2B5B2BEE
:10219000298B3A8B4B8B5C8B67960FAC679704C08F
:1021A00016950795F794E7940A94D2F7ED8AFE8A7C
:1021B0000F8B188F3A894B895C896E2D7E898F89A8
:1021C000988DC55ADF4FE2E10C944311629FD00114
:1021D000739FF001829FE00DF11D649FE00DF11DE2
:1021E000929FF00D839FF00D749FF00D659FF00D91
:1021F0009927729FB00DE11DF91F639FB00DE11D7E
:10220000F91FBD01CF0111240895A1E21A2EAA1BC6
:10221000BB1BFD010DC0AA1FBB1FEE1FFF1FA21796
:10222000B307E407F50720F0A21BB30BE40BF50B93
:10223000661F771F881F991F1A9469F7609570951C
:10224000809590959B01AC01BD01CF0108952F921F
:102250003F924F925F926F927F928F929F92AF9236
:10226000BF92CF92DF92EF92FF920F931F93CF9383
:10227000DF93CDB7DEB7CA1BDB0B0FB6F894DEBF1A
:102280000FBECDBF09942A88398848885F846E8440
:102290007D848C849B84AA84B984C884DF80EE808A
:1022A000FD800C811B81AA81B981CE0FD11D0FB693
:1022B000F894DEBF0FBECDBFED010895F894FFCFB7
:1022C00000010202030303030404040404040404DD
:1022D00005050505050505050505050505050505AE
:1022E000060606060606060606060606060606068E
:1022F000060606060606060606060606060606067E
:10230000070707070707070707070707070707075D
:10231000070707070707070707070707070707074D
:10232000070707070707070707070707070707073D
:10233000070707070707070707070707070707072D
:10234000080808080808080808080808080808080D
:1023500008080808080808080808080808080808FD
:1023600008080808080808080808080808080808ED
:1023700008080808080808080808080808080808DD
:1023800008080808080808080808080808080808CD
:1023900008080808080808080808080808080808BD
:1023A00008080808080808080808080808080808AD
:1023B000080808080808080808080808080808089D
:00000001FF
