:100000000C942A000C9434000C9434000C943400AA
:100010000C9434000C9434000C9434000C94340090
:100020000C9434000C9434000C9434000C94340080
:100030000C9434000C9434000C9434000C94340070
:100040000C9434000C9434000C9434000C94340060
:100050000C94340011241FBECFE5D4E0DEBFCDBF29
:100060000E9449010C945A020C94000020B32F7096
:10007000982F907F920F92BB939A92B312BA829567
:10008000807F280F22BB939A82B312BA0895929A66
:100090000E94360082E78A95F1F7089592B392BBE9
:1000A0000E94360082E78A95F1F7089580E991E091
:1000B00028EC30E0F9013197F1F70197D9F780E3A7
:1000C00082BB939A92B312BA98E6292F2A95F1F738
:1000D00082BB939A82B312BA892F8A95F1F780E294
:1000E00082BB939A82B312BA9A95F1F788E20E9482
:1000F0004E008CE00E944E0081E00E944E0084EF92
:100100009BE00197F1F786E00E944E00089528E0F9
:1001100030E002C0220F331F8A95E2F725BB82E050
:100120008A95F1F783B38F700895FC0110821182D4
:1001300080E185BB22E0822F8A95F1F793B380E2BC
:1001400085BB822F8A95F1F783B39295907F8F704C
:10015000982B908380E485BB822F8A95F1F793B327
:1001600080E885BB2A95F1F783B39295907F8F70D5
:10017000982B91830895CF92DF92EF92FF920F9385
:100180001F937C018B01CB010E949500F801D08068
:10019000C18080E395E70197F1F7C8010E949500BF
:1001A000F80180818D21808381818C218183F701F9
:1001B0009081909521812095F8018081F7018083BD
:1001C000F8018181F7018183F8018081892380838F
:1001D0008181822381831F910F91FF90EF90DF90A7
:1001E000CF900895FC01918190FF03C02EE030E094
:1001F0004EC091FF03C020E030E049C092FF03C031
:100200002FE030E044C093FF03C02DE030E03FC05A
:1002100094FF03C027E030E03AC095FF03C028E018
:1002200030E035C096FF03C029E030E030C097FFD2
:1002300003C02CE030E02BC0808180FF03C024E0AD
:1002400030E025C081FF03C025E030E020C082FF00
:1002500003C026E030E01BC083FF03C02BE030E08A
:1002600016C084FF03C021E030E011C085FF03C049
:1002700022E030E00CC086FF03C023E030E007C07E
:1002800087FD03C020E130E002C02AE030E0C90170
:1002900008959F92AF92BF92CF92DF92EF92FF921A
:1002A0000F931F93DF93CF9300D000D0CDB7DEB76D
:1002B0008FE594E09EBF8DBF8CEF81BB40EF942E05
:1002C00033E0C32ED12CCC0EDD1E5E010894A11CA0
:1002D000B11C94BAC501B6010E94BB00C6010E94C0
:1002E000F2008031B9F32FE0E22EE822C501B60119
:1002F0000E94BB00C6010E94F2008031B9F39FE06A
:10030000F92EF822C501B6010E94BB00C6010E9469
:10031000F2008031B9F3082F0F70C501B6010E94B9
:10032000BB00C6010E94F2008031B9F3182F1F7084
:100330000E94560089E08E1518F48E2D895C02C04B
:100340008E2D805D0E94470089E08F1518F48F2D57
:10035000895C02C08F2D805D0E9447000A3018F032
:10036000802F895C02C0802F805D0E9447001A3078
:1003700018F0812F895C02C0812F805D0E944700A8
:100380008DE30E9447008EE30E9447002E2D2295A8
:10039000207F2F29902F9295907F912B2038E1F488
:1003A0009923D1F48EE40E9447008FE40E94470015
:1003B00080E20E94470084E40E94470085E60E9494
:1003C000470086E70E94470089E60E94470083E6CF
:1003D0000E94470085E65CC0822F81508E3F88F0E6
:1003E000992321F4222311F480E34CC02F3F09F01C
:1003F00052C0992331F0892F81958F3610F43DE258
:1004000010C085E40E94470082E50E94470082E513
:100410000E9447008FE40E94470082E539C0892F7F
:100420003BE2982F969580FD02C0292F02C0292F0C
:100430002F5F243610F400E002C0245601E0822F22
:100440006AE00E944E02F92E822F0E944E02182F5F
:10045000832F0E944700002359F40F2D0F701123A2
:1004600029F01F70812F805D0E944700802F09C0F6
:1004700081E30E9447001F70812F805D0E9447002A
:100480008F2D805D0E94470080EB0E94470083E42F
:100490000E9447001ECF9B3F10F2B3CF991B79E01B
:1004A00004C0991F961708F0961B881F7A95C9F704
:0804B00080950895F894FFCF38
:00000001FF
