:020000020000FC
:100000008FE58DBF84E08EBF8CEF81BBD0E3C0E372
:10001000B0E3A0E3B799FACFB09BFECF34D08D2FD9
:1000200056D08C2F54D08DE452D089E450D08EE439
:100030004ED08AE34CD08B2F4AD08A2F48D083E50C
:1000400046D085E444D083E442D088EE93E05BD090
:10005000A93311F0A395DECFB53319F0B395A0E322
:10006000D9CFC93321F0C395B0E3A0E3D3CFD533C3
:1000700029F0D395C0E3B0E3A0E3CCCFD0E3C0E355
:10008000B0E3A0E3C7CF88E290E03DD080E382BB3D
:10009000939A939887E290E040D080E382BB939A52
:1000A000939887E290E039D080E282BB939A93984C
:1000B00087E290E032D088E210D08CE00ED081E070
:1000C0000CD08AEF95E029D086E007D00895929A67
:1000D0000AD08BE290E021D00895929804D087E274
:1000E00090E01BD008958F9390B39F70807F890F0D
:1000F00082BB939A93988F918295807F890F82BB60
:10010000939A939808958F939F9386EE93E005D0EA
:100110009F918F910197B9F7089501970000000012
:0801200000000000D1F7089572
:00000001FF
