:020000020000FC
:100000008FE58DBF84E08EBF8CEF81BB882787BBD7
:10001000D0E3C0E3B0E3A0E348D08D2F6AD08C2FAB
:1000200068D08DE466D089E464D08EE462D08AE33F
:1000300060D08B2F5ED08A2F5CD083E55AD085E4C8
:1000400058D083E456D088EE93E06FD0A93331F0D6
:10005000A395B799DDCFB09BFCCFDECFB53339F098
:10006000B395A0E3B799D4CFB09BFCCFD5CFC9331C
:1000700041F0C395B0E3A0E3B799CACFB09BFCCFE2
:10008000CBCFD53349F0D395C0E3B0E3A0E3B79924
:10009000BFCFB09BFCCFC0CFD0E3C0E3B0E3A0E3C1
:1000A000B799B6CFB09BFCCFB7CF88E290E03DD0F8
:1000B00080E382BB939A939887E290E040D080E3FC
:1000C00082BB939A939887E290E039D080E282BB1A
:1000D000939A939887E290E032D088E210D08CE037
:1000E0000ED081E00CD08AEF95E029D086E007D0D1
:1000F0000895929A0AD08BE290E021D008959298C8
:1001000004D087E290E01BD008958F9390B39F7046
:10011000807F890F82BB939A93988F918295807F7D
:10012000890F82BB939A939808958F939F9386EE3D
:1001300093E005D09F918F910197B9F708950197AA
:0C0140000000000000000000D1F708954E
:00000001FF
