:020000020000FC
:0200000010C02E
:0200080032C004
:1000200037C088E085BF80E88BBF78948FE58DBFAF
:1000300084E08EBFAFEFA7BBAA27AABB84E089BF2D
:1000400085E08EBDCF9BFECFCF99FECF85E88DBDDD
:100050008EEE8CBDB09903C0A1E0A8BBF3CFAFEF8B
:10006000A8BB84EF91E017D0A1E0A8BBEBCF85E857
:100070008DBD8EEE8CBDB09903C0A1E0A8BB1895D4
:10008000AFEFA8BB84EF91E006D0A1E0A8BB189524
:10009000A0E0A8BB18958F939F9386EE93E005D0C0
:1000A0009F918F910197B9F7089501970000000083
:0800B00000000000D1F70895E3
:00000001FF
