:020000020000FC
:040000000C941F003D
:100038000C942F001895AFE5ADBFA4E0AEBF8FEFCD
:1000480087BBB0E078944ED060D0B8BB8CE291E02A
:1000580061D0369AFACF6894552766277727DD2727
:10006800CC27002786B186FDFDCF84B195B1332713
:10007800580F691F701F33953A3FD0F33327580F35
:10008800691F701F33953A3FD0F3552776956795CA
:1000980076956795643618F0D3956456FBCF6A3029
:1000A80018F0C3956A50FBCF70FF0DC06A5F6A30C5
:1000B80008F402C06A50C395CB5FCA3008F402C086
:1000C800CA50D395DE5F605DC05DD05D8D2F15D0C1
:1000D8008EE213D08C2F11D0862F0FD08AE00DD04E
:1000E800B395189588278BB988E18AB980E080BDD7
:1000F80083E389B986E880BD08955D9BFECF8CB9FE
:1001080008955F9BFECF8CB1089580E487B98FE88E
:1001180086B908958F939F9386EE93E005D09F91BB
:100128008F910197B9F7089501970000000000002A
:060138000000D1F708955C
:00000001FF
