:020000020000FC
:100000008FE58DBF84E08EBF8CEF81BB80EF84BB1A
:1000100085E093D05FD08031D9F38F70182F82950F
:10002000082F85E08AD056D08031D9F38F70282FE1
:10003000800F803051F4B2D080E3D4D080E3D2D0AE
:100040008DE3D0D080E3CED0DBCF87FF06C0DDE2EA
:100050008F7790E8981B892F01C0DBE2843610F47B
:10006000C0E302C0C1E38456B0E08A3008F404C0A3
:10007000B3958A508A30E0F700E3B00F800FA82FC5
:10008000100F200F1A3318F42A3330F407C007E09A
:10009000100F2A3308F402C007E0200F7FD0812F11
:1000A000A1D0822F9FD08DE39DD08D2F9BD0C033C8
:1000B00051F4B03329F08B2F95D08A2F93D0A0CF55
:1000C0008A2F90D09DCF8C2F8DD08B2F8BD08A2FC5
:1000D00089D096CFDC018EE0A0FD089580E0A1FDDF
:1000E00008958FE0A2FD08958DE0A3FD089587E0B7
:1000F000A4FD089588E0A5FD089589E0A6FD089572
:100100008CE0A7FD089584E0B0FD089585E0B1FD81
:10011000089586E0B2FD08958BE0B3FD089581E077
:10012000B4FD089582E0B5FD089583E0B6FD08951D
:100130008AE0B7FD089580E10895682F15D08F9368
:100140009F93862F90E06AD00FD07F916F91862386
:100150009723A0E6B0E07D916C918C939E9370956F
:10016000609586239723089581E00ED08295B82F5D
:1001700082E00AD0B80F83E007D08295A82F84E0F0
:1001800003D0A80FCD01089598E0990F8A95E9F75B
:1001900095BB0000000083B38F70089588E290E063
:1001A0003DD080E382BB939A939887E290E040D061
:1001B00080E382BB939A939887E290E039D080E203
:1001C00082BB939A939887E290E032D088E210D075
:1001D0008CE00ED081E00CD08AEF95E029D086E04B
:1001E00007D00895929A0AD08BE290E021D008952A
:1001F000929804D087E290E01BD008958F9390B33B
:100200009F70807F890F82BB939A93988F9182957C
:10021000807F890F82BB939A939808958F939F93C1
:1002200086EE93E005D09F918F910197B9F70895DD
:0E02300001970000000000000000D1F70895C3
:00000001FF
