:020000020000FC
:100000008FE58DBF84E08EBF8FEF87BB80EF84BB11
:1000100085E056D022D08030D9F3C82F85E050D06B
:100020001CD08030D9F308E0863351F4C13341F459
:10003000AFEFA8BB80EA9FE074D0A0E0A8BBE0CF00
:10004000AFEFA8BB8AEF90E06CD0A0E0A8BB8AEF2E
:1000500090E067D00A95A1F2F3CFDC018AE2A0FD1F
:10006000089580E3A1FD089583E2A2FD089584E44C
:10007000A3FD089587E3A4FD089588E3A5FD0895F1
:1000800089E3A6FD089583E4A7FD089584E3B0FD08
:10009000089585E3B1FD089586E3B2FD089582E4F5
:1000A000B3FD089581E3B4FD089582E3B5FD08959D
:1000B00083E3B6FD089581E4B7FD08958827089588
:1000C000682F15D08F939F93862F90E02AD00FD062
:1000D0007F916F9186239723A0E6B0E07D916C918C
:1000E0008C939E937095609586239723089581E065
:1000F0000ED08295B82F82E00AD0B80F83E007D0E7
:100100008295A82F84E003D0A80FCD01089598E030
:10011000990F8A95E9F795BB0000000083B38F70B3
:1001200008958F939F9386EE93E005D09F918F91D2
:100130000197B9F708950197000000000000000042
:04014000D1F7089556
:00000001FF
