:100000000C942A000C943C000C943C000C943C0092
:100010000C943C000C943C000C943C000C943C0070
:100020000C943C000C943C000C943C000C943C0060
:100030000C943C000C943C000C943C000C943C0050
:100040000C943C000C943C000C943C000C943C0040
:100050000C943C0011241FBECFE5D4E0DEBFCDBF21
:1000600010E0A0E6B0E001C01D92A236B107E1F7B2
:100070000E94DE000C940A010C940000DC9AD49AD1
:10008000DC9880EC93E00197F1F7D498DC9888EC49
:1000900090E00197F1F789B3E8EFF2E03197F1F7DB
:1000A00090E084FF91E0892F0895D49A9BB31BBA06
:1000B00095E09A95F1F780FF02C0DC9A02C08BB3FD
:1000C0001BBA8AE98A95F1F78AB31ABA8BB31BBABD
:1000D00082E08A95F1F708951F93CF93DF93182F4D
:1000E000C0E0D0E010FF02C081E001C080E00E94CB
:1000F00055002196C830D10511F01695F3CFDF9148
:10010000CF911F910895D49A8BB31BBA85E08A953D
:10011000F1F78AB31ABA8BB31BBA8AE18A95F1F761
:1001200089B392E89A95F1F790E024E09695879547
:100130002A95E1F7817008951F93CF93DF9310E024
:10014000C0E0D0E00E948300982F812F869590FF19
:1001500003C0182F106802C0182F192B2196C83021
:10016000D10581F7812FDF91CF911F9108950E94D2
:100170003E0080FF0EC08CEC0E946C0084E40E9464
:100180006C000E94830080FFFCCF0E943E0080FD37
:1001900004C01092600080E80CC08CEC0E946C00DF
:1001A0008EEB0E946C000E949C00809360000E9475
:1001B0009C008093610080E690E008951F93CF93A8
:1001C000DF93CFE5D4E01FEFDEBFCDBF17BB0E94AA
:1001D000B700FC019081992319F481818038B9F32B
:1001E0008181882339F4892F869590FD8F5F8083E4
:1001F00080810EC0803841F7892F81958083982FA8
:10020000969580FD9F5F9083808181958083806833
:0802100088BBDACFF894FFCFA0
:00000001FF
