:100000000C942A000C943F000C943F000C943F0089
:100010000C943F000C943F000C943F000C943F0064
:100020000C943F000C943F000C943F000C943F0054
:100030000C943F000C943F000C943F000C943F0044
:100040000C943F000C943F000C943F000C943F0034
:100050000C943F0011241FBECFE5D4E0DEBFCDBF1E
:1000600010E0A0E6B0E0E8E6F1E002C005900D92F5
:10007000A637B107D9F70E945C000C94B2000C942B
:10008000000010BC83E389B91BB888E18AB986E80F
:1000900080BD08955D9BFECF8CB908955F9BFECF18
:1000A0008CB10895FC0104C05D9BFECF8CB93196E4
:1000B00080818823C9F70895DF92EF92FF920F9312
:1000C0001F93CF93DF938FE594E09EBF8DBF8FEF9B
:1000D00087BB10BC83E389B91BB888E18AB986E87D
:1000E00080BDC8ECD0E09AE0D92E81E0E82EF12C5A
:1000F0005F9BFECF0CB188EE93E0FE013197F1F7E4
:100100000197D9F7102F10531930F0F480E690E0E2
:100110000E9452005D9BFECF0CB95D9BFECFDCB808
:10012000003311F418BA08C01150C70102C0880F7B
:10013000991F1A95E2F788BB88EE93E0FE0131978C
:10014000F1F70197D9F7D4CF0A3091F286E690E023
:100150000E94520088EE93E0FE013197F1F701977B
:08016000D9F7C6CFF894FFCFD8
:10016800526561642000496E76616C6964204E7541
:060178006D6265720A00D1
:00000001FF
